{
  "contractName": "AccessControl",
  "abi": [
    {
      "inputs": [
        {
          "internalType": "address",
          "name": "patientRegistryAddress",
          "type": "address"
        },
        {
          "internalType": "address",
          "name": "providerRegistryAddress",
          "type": "address"
        }
      ],
      "stateMutability": "nonpayable",
      "type": "constructor"
    },
    {
      "anonymous": false,
      "inputs": [
        {
          "indexed": true,
          "internalType": "address",
          "name": "patient",
          "type": "address"
        },
        {
          "indexed": true,
          "internalType": "address",
          "name": "provider",
          "type": "address"
        }
      ],
      "name": "AccessApproved",
      "type": "event"
    },
    {
      "anonymous": false,
      "inputs": [
        {
          "indexed": true,
          "internalType": "address",
          "name": "patient",
          "type": "address"
        },
        {
          "indexed": true,
          "internalType": "address",
          "name": "provider",
          "type": "address"
        }
      ],
      "name": "AccessRequested",
      "type": "event"
    },
    {
      "anonymous": false,
      "inputs": [
        {
          "indexed": true,
          "internalType": "address",
          "name": "patient",
          "type": "address"
        },
        {
          "indexed": true,
          "internalType": "address",
          "name": "provider",
          "type": "address"
        }
      ],
      "name": "AccessRevoked",
      "type": "event"
    },
    {
      "inputs": [
        {
          "internalType": "address",
          "name": "",
          "type": "address"
        },
        {
          "internalType": "address",
          "name": "",
          "type": "address"
        }
      ],
      "name": "accessRequests",
      "outputs": [
        {
          "internalType": "address",
          "name": "patientAddress",
          "type": "address"
        },
        {
          "internalType": "address",
          "name": "providerAddress",
          "type": "address"
        },
        {
          "internalType": "uint256",
          "name": "timestamp",
          "type": "uint256"
        },
        {
          "internalType": "string",
          "name": "purpose",
          "type": "string"
        },
        {
          "internalType": "bool",
          "name": "isApproved",
          "type": "bool"
        }
      ],
      "stateMutability": "view",
      "type": "function"
    },
    {
      "inputs": [],
      "name": "patientRegistry",
      "outputs": [
        {
          "internalType": "contract PatientRegistry",
          "name": "",
          "type": "address"
        }
      ],
      "stateMutability": "view",
      "type": "function"
    },
    {
      "inputs": [
        {
          "internalType": "address",
          "name": "",
          "type": "address"
        },
        {
          "internalType": "uint256",
          "name": "",
          "type": "uint256"
        }
      ],
      "name": "patientToProviders",
      "outputs": [
        {
          "internalType": "address",
          "name": "",
          "type": "address"
        }
      ],
      "stateMutability": "view",
      "type": "function"
    },
    {
      "inputs": [],
      "name": "providerRegistry",
      "outputs": [
        {
          "internalType": "contract HealthcareProviderRegistry",
          "name": "",
          "type": "address"
        }
      ],
      "stateMutability": "view",
      "type": "function"
    },
    {
      "inputs": [
        {
          "internalType": "address",
          "name": "",
          "type": "address"
        },
        {
          "internalType": "uint256",
          "name": "",
          "type": "uint256"
        }
      ],
      "name": "providerToPatients",
      "outputs": [
        {
          "internalType": "address",
          "name": "",
          "type": "address"
        }
      ],
      "stateMutability": "view",
      "type": "function"
    },
    {
      "inputs": [
        {
          "internalType": "address",
          "name": "patientAddress",
          "type": "address"
        },
        {
          "internalType": "string",
          "name": "purpose",
          "type": "string"
        }
      ],
      "name": "requestAccess",
      "outputs": [],
      "stateMutability": "nonpayable",
      "type": "function"
    },
    {
      "inputs": [
        {
          "internalType": "address",
          "name": "providerAddress",
          "type": "address"
        }
      ],
      "name": "approveAccess",
      "outputs": [],
      "stateMutability": "nonpayable",
      "type": "function"
    },
    {
      "inputs": [
        {
          "internalType": "address",
          "name": "providerAddress",
          "type": "address"
        }
      ],
      "name": "revokeAccess",
      "outputs": [],
      "stateMutability": "nonpayable",
      "type": "function"
    },
    {
      "inputs": [
        {
          "internalType": "address",
          "name": "patientAddress",
          "type": "address"
        },
        {
          "internalType": "address",
          "name": "providerAddress",
          "type": "address"
        }
      ],
      "name": "checkAccess",
      "outputs": [
        {
          "internalType": "bool",
          "name": "",
          "type": "bool"
        }
      ],
      "stateMutability": "view",
      "type": "function"
    }
  ],
  "bytecode": "0x608060405234801562000010575f80fd5b5060405162001c3f38038062001c3f833981810160405281019062000036919062000122565b815f806101000a81548173ffffffffffffffffffffffffffffffffffffffff021916908373ffffffffffffffffffffffffffffffffffffffff1602179055508060015f6101000a81548173ffffffffffffffffffffffffffffffffffffffff021916908373ffffffffffffffffffffffffffffffffffffffff160217905550505062000167565b5f80fd5b5f73ffffffffffffffffffffffffffffffffffffffff82169050919050565b5f620000ec82620000c1565b9050919050565b620000fe81620000e0565b811462000109575f80fd5b50565b5f815190506200011c81620000f3565b92915050565b5f80604083850312156200013b576200013a620000bd565b5b5f6200014a858286016200010c565b92505060206200015d858286016200010c565b9150509250929050565b611aca80620001755f395ff3fe608060405234801561000f575f80fd5b5060043610610091575f3560e01c8063705211f411610064578063705211f41461011d57806385e6853114610139578063978efb2814610155578063ab4f232914610185578063da1ad3d8146101b957610091565b80632f6d4a59146100955780635250c6e2146100b1578063545921d9146100cf57806362e1f745146100ed575b5f80fd5b6100af60048036038101906100aa9190611181565b6101e9565b005b6100b96105d2565b6040516100c69190611239565b60405180910390f35b6100d76105f5565b6040516100e49190611272565b60405180910390f35b6101076004803603810190610102919061128b565b61061a565b60405161011491906112e3565b60405180910390f35b610137600480360381019061013291906112fc565b6106ab565b005b610153600480360381019061014e91906112fc565b6109d9565b005b61016f600480360381019061016a919061135a565b610ba3565b60405161017c91906113a7565b60405180910390f35b61019f600480360381019061019a919061128b565b610beb565b6040516101b0959493929190611459565b60405180910390f35b6101d360048036038101906101ce919061135a565b610cf8565b6040516101e091906113a7565b60405180910390f35b60015f9054906101000a900473ffffffffffffffffffffffffffffffffffffffff1673ffffffffffffffffffffffffffffffffffffffff166358bd1175336040518263ffffffff1660e01b815260040161024391906113a7565b602060405180830381865afa15801561025e573d5f803e3d5ffd5b505050506040513d601f19601f8201168201806040525081019061028291906114db565b6102c1576040517f08c379a00000000000000000000000000000000000000000000000000000000081526004016102b890611550565b60405180910390fd5b5f8054906101000a900473ffffffffffffffffffffffffffffffffffffffff1673ffffffffffffffffffffffffffffffffffffffff166380b6b1b8846040518263ffffffff1660e01b815260040161031991906113a7565b602060405180830381865afa158015610334573d5f803e3d5ffd5b505050506040513d601f19601f8201168201806040525081019061035891906114db565b610397576040517f08c379a000000000000000000000000000000000000000000000000000000000815260040161038e906115b8565b60405180910390fd5b6040518060a001604052808473ffffffffffffffffffffffffffffffffffffffff1681526020013373ffffffffffffffffffffffffffffffffffffffff16815260200142815260200183838080601f0160208091040260200160405190810160405280939291908181526020018383808284375f81840152601f19601f8201169050808301925050505050505081526020015f151581525060025f8573ffffffffffffffffffffffffffffffffffffffff1673ffffffffffffffffffffffffffffffffffffffff1681526020019081526020015f205f3373ffffffffffffffffffffffffffffffffffffffff1673ffffffffffffffffffffffffffffffffffffffff1681526020019081526020015f205f820151815f015f6101000a81548173ffffffffffffffffffffffffffffffffffffffff021916908373ffffffffffffffffffffffffffffffffffffffff1602179055506020820151816001015f6101000a81548173ffffffffffffffffffffffffffffffffffffffff021916908373ffffffffffffffffffffffffffffffffffffffff16021790555060408201518160020155606082015181600301908161055091906117f4565b506080820151816004015f6101000a81548160ff0219169083151502179055509050503373ffffffffffffffffffffffffffffffffffffffff168373ffffffffffffffffffffffffffffffffffffffff167f40c7749b16fdfb0d550f20273a7767875059d647af94f5a9610c63ad73dcc79f60405160405180910390a3505050565b5f8054906101000a900473ffffffffffffffffffffffffffffffffffffffff1681565b60015f9054906101000a900473ffffffffffffffffffffffffffffffffffffffff1681565b5f60025f8473ffffffffffffffffffffffffffffffffffffffff1673ffffffffffffffffffffffffffffffffffffffff1681526020019081526020015f205f8373ffffffffffffffffffffffffffffffffffffffff1673ffffffffffffffffffffffffffffffffffffffff1681526020019081526020015f206004015f9054906101000a900460ff16905092915050565b5f73ffffffffffffffffffffffffffffffffffffffff1660025f3373ffffffffffffffffffffffffffffffffffffffff1673ffffffffffffffffffffffffffffffffffffffff1681526020019081526020015f205f8373ffffffffffffffffffffffffffffffffffffffff1673ffffffffffffffffffffffffffffffffffffffff1681526020019081526020015f206001015f9054906101000a900473ffffffffffffffffffffffffffffffffffffffff1673ffffffffffffffffffffffffffffffffffffffff16036107b3576040517f08c379a00000000000000000000000000000000000000000000000000000000081526004016107aa9061190d565b60405180910390fd5b600160025f3373ffffffffffffffffffffffffffffffffffffffff1673ffffffffffffffffffffffffffffffffffffffff1681526020019081526020015f205f8373ffffffffffffffffffffffffffffffffffffffff1673ffffffffffffffffffffffffffffffffffffffff1681526020019081526020015f206004015f6101000a81548160ff02191690831515021790555060035f3373ffffffffffffffffffffffffffffffffffffffff1673ffffffffffffffffffffffffffffffffffffffff1681526020019081526020015f2081908060018154018082558091505060019003905f5260205f20015f9091909190916101000a81548173ffffffffffffffffffffffffffffffffffffffff021916908373ffffffffffffffffffffffffffffffffffffffff16021790555060045f8273ffffffffffffffffffffffffffffffffffffffff1673ffffffffffffffffffffffffffffffffffffffff1681526020019081526020015f2033908060018154018082558091505060019003905f5260205f20015f9091909190916101000a81548173ffffffffffffffffffffffffffffffffffffffff021916908373ffffffffffffffffffffffffffffffffffffffff1602179055508073ffffffffffffffffffffffffffffffffffffffff163373ffffffffffffffffffffffffffffffffffffffff167fe6334627d2d1b816244f24397d90a02beea6f06a64333958f2fca9a73f84266d60405160405180910390a350565b60025f3373ffffffffffffffffffffffffffffffffffffffff1673ffffffffffffffffffffffffffffffffffffffff1681526020019081526020015f205f8273ffffffffffffffffffffffffffffffffffffffff1673ffffffffffffffffffffffffffffffffffffffff1681526020019081526020015f206004015f9054906101000a900460ff16610aa0576040517f08c379a0000000000000000000000000000000000000000000000000000000008152600401610a9790611975565b60405180910390fd5b5f60025f3373ffffffffffffffffffffffffffffffffffffffff1673ffffffffffffffffffffffffffffffffffffffff1681526020019081526020015f205f8373ffffffffffffffffffffffffffffffffffffffff1673ffffffffffffffffffffffffffffffffffffffff1681526020019081526020015f206004015f6101000a81548160ff021916908315150217905550610b3c3382610d40565b610b468133610eff565b8073ffffffffffffffffffffffffffffffffffffffff163373ffffffffffffffffffffffffffffffffffffffff167f825c8be24eb0df19500f63e86c29e7d0d951e73056b889b891d85e40938d9b6e60405160405180910390a350565b6003602052815f5260405f208181548110610bbc575f80fd5b905f5260205f20015f915091509054906101000a900473ffffffffffffffffffffffffffffffffffffffff1681565b6002602052815f5260405f20602052805f5260405f205f9150915050805f015f9054906101000a900473ffffffffffffffffffffffffffffffffffffffff1690806001015f9054906101000a900473ffffffffffffffffffffffffffffffffffffffff1690806002015490806003018054610c6590611630565b80601f0160208091040260200160405190810160405280929190818152602001828054610c9190611630565b8015610cdc5780601f10610cb357610100808354040283529160200191610cdc565b820191905f5260205f20905b815481529060010190602001808311610cbf57829003601f168201915b505050505090806004015f9054906101000a900460ff16905085565b6004602052815f5260405f208181548110610d11575f80fd5b905f5260205f20015f915091509054906101000a900473ffffffffffffffffffffffffffffffffffffffff1681565b5f60035f8473ffffffffffffffffffffffffffffffffffffffff1673ffffffffffffffffffffffffffffffffffffffff1681526020019081526020015f2090505f5b8180549050811015610ef9578273ffffffffffffffffffffffffffffffffffffffff16828281548110610db857610db7611993565b5b905f5260205f20015f9054906101000a900473ffffffffffffffffffffffffffffffffffffffff1673ffffffffffffffffffffffffffffffffffffffff1603610ee6578160018380549050610e0d91906119ed565b81548110610e1e57610e1d611993565b5b905f5260205f20015f9054906101000a900473ffffffffffffffffffffffffffffffffffffffff16828281548110610e5957610e58611993565b5b905f5260205f20015f6101000a81548173ffffffffffffffffffffffffffffffffffffffff021916908373ffffffffffffffffffffffffffffffffffffffff16021790555081805480610eaf57610eae611a20565b5b600190038181905f5260205f20015f6101000a81549073ffffffffffffffffffffffffffffffffffffffff02191690559055610ef9565b8080610ef190611a4d565b915050610d82565b50505050565b5f60045f8473ffffffffffffffffffffffffffffffffffffffff1673ffffffffffffffffffffffffffffffffffffffff1681526020019081526020015f2090505f5b81805490508110156110b8578273ffffffffffffffffffffffffffffffffffffffff16828281548110610f7757610f76611993565b5b905f5260205f20015f9054906101000a900473ffffffffffffffffffffffffffffffffffffffff1673ffffffffffffffffffffffffffffffffffffffff16036110a5578160018380549050610fcc91906119ed565b81548110610fdd57610fdc611993565b5b905f5260205f20015f9054906101000a900473ffffffffffffffffffffffffffffffffffffffff1682828154811061101857611017611993565b5b905f5260205f20015f6101000a81548173ffffffffffffffffffffffffffffffffffffffff021916908373ffffffffffffffffffffffffffffffffffffffff1602179055508180548061106e5761106d611a20565b5b600190038181905f5260205f20015f6101000a81549073ffffffffffffffffffffffffffffffffffffffff021916905590556110b8565b80806110b090611a4d565b915050610f41565b50505050565b5f80fd5b5f80fd5b5f73ffffffffffffffffffffffffffffffffffffffff82169050919050565b5f6110ef826110c6565b9050919050565b6110ff816110e5565b8114611109575f80fd5b50565b5f8135905061111a816110f6565b92915050565b5f80fd5b5f80fd5b5f80fd5b5f8083601f84011261114157611140611120565b5b8235905067ffffffffffffffff81111561115e5761115d611124565b5b60208301915083600182028301111561117a57611179611128565b5b9250929050565b5f805f60408486031215611198576111976110be565b5b5f6111a58682870161110c565b935050602084013567ffffffffffffffff8111156111c6576111c56110c2565b5b6111d28682870161112c565b92509250509250925092565b5f819050919050565b5f6112016111fc6111f7846110c6565b6111de565b6110c6565b9050919050565b5f611212826111e7565b9050919050565b5f61122382611208565b9050919050565b61123381611219565b82525050565b5f60208201905061124c5f83018461122a565b92915050565b5f61125c82611208565b9050919050565b61126c81611252565b82525050565b5f6020820190506112855f830184611263565b92915050565b5f80604083850312156112a1576112a06110be565b5b5f6112ae8582860161110c565b92505060206112bf8582860161110c565b9150509250929050565b5f8115159050919050565b6112dd816112c9565b82525050565b5f6020820190506112f65f8301846112d4565b92915050565b5f60208284031215611311576113106110be565b5b5f61131e8482850161110c565b91505092915050565b5f819050919050565b61133981611327565b8114611343575f80fd5b50565b5f8135905061135481611330565b92915050565b5f80604083850312156113705761136f6110be565b5b5f61137d8582860161110c565b925050602061138e85828601611346565b9150509250929050565b6113a1816110e5565b82525050565b5f6020820190506113ba5f830184611398565b92915050565b6113c981611327565b82525050565b5f81519050919050565b5f82825260208201905092915050565b5f5b838110156114065780820151818401526020810190506113eb565b5f8484015250505050565b5f601f19601f8301169050919050565b5f61142b826113cf565b61143581856113d9565b93506114458185602086016113e9565b61144e81611411565b840191505092915050565b5f60a08201905061146c5f830188611398565b6114796020830187611398565b61148660408301866113c0565b81810360608301526114988185611421565b90506114a760808301846112d4565b9695505050505050565b6114ba816112c9565b81146114c4575f80fd5b50565b5f815190506114d5816114b1565b92915050565b5f602082840312156114f0576114ef6110be565b5b5f6114fd848285016114c7565b91505092915050565b7f50726f7669646572206e6f742076657269666965642e000000000000000000005f82015250565b5f61153a6016836113d9565b915061154582611506565b602082019050919050565b5f6020820190508181035f8301526115678161152e565b9050919050565b7f50617469656e74206e6f7420726567697374657265642e0000000000000000005f82015250565b5f6115a26017836113d9565b91506115ad8261156e565b602082019050919050565b5f6020820190508181035f8301526115cf81611596565b9050919050565b7f4e487b71000000000000000000000000000000000000000000000000000000005f52604160045260245ffd5b7f4e487b71000000000000000000000000000000000000000000000000000000005f52602260045260245ffd5b5f600282049050600182168061164757607f821691505b60208210810361165a57611659611603565b5b50919050565b5f819050815f5260205f209050919050565b5f6020601f8301049050919050565b5f82821b905092915050565b5f600883026116bc7fffffffffffffffffffffffffffffffffffffffffffffffffffffffffffffffff82611681565b6116c68683611681565b95508019841693508086168417925050509392505050565b5f6116f86116f36116ee84611327565b6111de565b611327565b9050919050565b5f819050919050565b611711836116de565b61172561171d826116ff565b84845461168d565b825550505050565b5f90565b61173961172d565b611744818484611708565b505050565b5b818110156117675761175c5f82611731565b60018101905061174a565b5050565b601f8211156117ac5761177d81611660565b61178684611672565b81016020851015611795578190505b6117a96117a185611672565b830182611749565b50505b505050565b5f82821c905092915050565b5f6117cc5f19846008026117b1565b1980831691505092915050565b5f6117e483836117bd565b9150826002028217905092915050565b6117fd826113cf565b67ffffffffffffffff811115611816576118156115d6565b5b6118208254611630565b61182b82828561176b565b5f60209050601f83116001811461185c575f841561184a578287015190505b61185485826117d9565b8655506118bb565b601f19841661186a86611660565b5f5b828110156118915784890151825560018201915060208501945060208101905061186c565b868310156118ae57848901516118aa601f8916826117bd565b8355505b6001600288020188555050505b505050505050565b7f4e6f20616363657373207265717565737420666f756e642e00000000000000005f82015250565b5f6118f76018836113d9565b9150611902826118c3565b602082019050919050565b5f6020820190508181035f830152611924816118eb565b9050919050565b7f416363657373206e6f74206772616e7465642e000000000000000000000000005f82015250565b5f61195f6013836113d9565b915061196a8261192b565b602082019050919050565b5f6020820190508181035f83015261198c81611953565b9050919050565b7f4e487b71000000000000000000000000000000000000000000000000000000005f52603260045260245ffd5b7f4e487b71000000000000000000000000000000000000000000000000000000005f52601160045260245ffd5b5f6119f782611327565b9150611a0283611327565b9250828203905081811115611a1a57611a196119c0565b5b92915050565b7f4e487b71000000000000000000000000000000000000000000000000000000005f52603160045260245ffd5b5f611a5782611327565b91507fffffffffffffffffffffffffffffffffffffffffffffffffffffffffffffffff8203611a8957611a886119c0565b5b60018201905091905056fea2646970667358221220d2d602dbfe4361de78c51a089d6e99009ce54fd9414a4051a9982126b4476a9a64736f6c63430008150033",
  "immutableReferences": {},
  "source": "// SPDX-License-Identifier: MIT\npragma solidity ^0.8.0;\n\nimport \"./PatientRegistry.sol\";\nimport \"./HealthcareProviderRegistry.sol\";\n\ncontract AccessControl {\n    PatientRegistry public patientRegistry;\n    HealthcareProviderRegistry public providerRegistry;\n\n    constructor(address patientRegistryAddress, address providerRegistryAddress) {\n        patientRegistry = PatientRegistry(patientRegistryAddress);\n        providerRegistry = HealthcareProviderRegistry(providerRegistryAddress);\n    }\n\n    struct AccessRequest {\n        address patientAddress;\n        address providerAddress;\n        uint256 timestamp;\n        string purpose;\n        bool isApproved;\n    }\n\n    mapping(address => mapping(address => AccessRequest)) public accessRequests;\n    mapping(address => address[]) public patientToProviders;\n    mapping(address => address[]) public providerToPatients;\n\n    event AccessRequested(address indexed patient, address indexed provider);\n    event AccessApproved(address indexed patient, address indexed provider);\n    event AccessRevoked(address indexed patient, address indexed provider);\n\n    // Function for providers to request access to a patient's records\n    function requestAccess(address patientAddress, string calldata purpose) external {\n        require(\n            providerRegistry.isProviderVerified(msg.sender),\n            \"Provider not verified.\"\n        );\n        require(\n            patientRegistry.isPatientRegistered(patientAddress),\n            \"Patient not registered.\"\n        );\n\n        accessRequests[patientAddress][msg.sender] = AccessRequest({\n            patientAddress: patientAddress,\n            providerAddress: msg.sender,\n            timestamp: block.timestamp,\n            purpose: purpose,\n            isApproved: false\n        });\n\n        emit AccessRequested(patientAddress, msg.sender);\n    }\n\n    // Function for patients to approve access requests\n    function approveAccess(address providerAddress) external {\n        require(\n            accessRequests[msg.sender][providerAddress].providerAddress != address(0),\n            \"No access request found.\"\n        );\n\n        accessRequests[msg.sender][providerAddress].isApproved = true;\n        patientToProviders[msg.sender].push(providerAddress);\n        providerToPatients[providerAddress].push(msg.sender);\n\n        emit AccessApproved(msg.sender, providerAddress);\n    }\n\n    // Function for patients to revoke access\n    function revokeAccess(address providerAddress) external {\n        require(\n            accessRequests[msg.sender][providerAddress].isApproved,\n            \"Access not granted.\"\n        );\n\n        accessRequests[msg.sender][providerAddress].isApproved = false;\n\n        // Remove provider from patientToProviders\n        removeProvider(msg.sender, providerAddress);\n        // Remove patient from providerToPatients\n        removePatient(providerAddress, msg.sender);\n\n        emit AccessRevoked(msg.sender, providerAddress);\n    }\n\n    // Function to check if access is granted\n    function checkAccess(address patientAddress, address providerAddress)\n        public\n        view\n        returns (bool)\n    {\n        return accessRequests[patientAddress][providerAddress].isApproved;\n    }\n\n    // Internal function to remove a provider from a patient's list\n    function removeProvider(address patientAddress, address providerAddress)\n        internal\n    {\n        address[] storage providers = patientToProviders[patientAddress];\n        for (uint256 i = 0; i < providers.length; i++) {\n            if (providers[i] == providerAddress) {\n                providers[i] = providers[providers.length - 1];\n                providers.pop();\n                break;\n            }\n        }\n    }\n\n    // Internal function to remove a patient from a provider's list\n    function removePatient(address providerAddress, address patientAddress)\n        internal\n    {\n        address[] storage patients = providerToPatients[providerAddress];\n        for (uint256 i = 0; i < patients.length; i++) {\n            if (patients[i] == patientAddress) {\n                patients[i] = patients[patients.length - 1];\n                patients.pop();\n                break;\n            }\n        }\n    }\n}\n",
  "sourcePath": "/Users/hongjingtoh/Documents/Healthcare-DApp/contracts/AccessControl.sol",
  "compiler": {
    "name": "solc",
    "version": "0.8.21+commit.d9974bed.Emscripten.clang"
  },
  "schemaVersion": "3.4.16",
  "updatedAt": "2024-11-18T09:52:07.057Z",
  "devdoc": {
    "kind": "dev",
    "methods": {},
    "version": 1
  },
  "userdoc": {
    "kind": "user",
    "methods": {},
    "version": 1
  }
}