{
  "contractName": "HealthcareProviderRegistry",
  "abi": [
    {
      "inputs": [],
      "stateMutability": "nonpayable",
      "type": "constructor"
    },
    {
      "inputs": [],
      "name": "admin",
      "outputs": [
        {
          "internalType": "address",
          "name": "",
          "type": "address"
        }
      ],
      "stateMutability": "view",
      "type": "function"
    },
    {
      "inputs": [
        {
          "internalType": "string",
          "name": "name",
          "type": "string"
        },
        {
          "internalType": "string",
          "name": "clinicName",
          "type": "string"
        },
        {
          "internalType": "string",
          "name": "licenseNumber",
          "type": "string"
        }
      ],
      "name": "registerHealthcareProvider",
      "outputs": [],
      "stateMutability": "nonpayable",
      "type": "function"
    },
    {
      "inputs": [
        {
          "internalType": "address",
          "name": "providerAddress",
          "type": "address"
        }
      ],
      "name": "verifyHealthcareProvider",
      "outputs": [],
      "stateMutability": "nonpayable",
      "type": "function"
    },
    {
      "inputs": [
        {
          "internalType": "address",
          "name": "providerAddress",
          "type": "address"
        }
      ],
      "name": "isProviderVerified",
      "outputs": [
        {
          "internalType": "bool",
          "name": "",
          "type": "bool"
        }
      ],
      "stateMutability": "view",
      "type": "function"
    },
    {
      "inputs": [
        {
          "internalType": "address",
          "name": "providerAddress",
          "type": "address"
        }
      ],
      "name": "getHealthcareProvider",
      "outputs": [
        {
          "internalType": "address",
          "name": "",
          "type": "address"
        },
        {
          "internalType": "string",
          "name": "",
          "type": "string"
        },
        {
          "internalType": "string",
          "name": "",
          "type": "string"
        },
        {
          "internalType": "string",
          "name": "",
          "type": "string"
        },
        {
          "internalType": "bool",
          "name": "",
          "type": "bool"
        }
      ],
      "stateMutability": "view",
      "type": "function"
    }
  ],
  "bytecode": "0x608060405234801561000f575f80fd5b50335f806101000a81548173ffffffffffffffffffffffffffffffffffffffff021916908373ffffffffffffffffffffffffffffffffffffffff1602179055506110178061005c5f395ff3fe608060405234801561000f575f80fd5b5060043610610055575f3560e01c8063326eb2791461005957806358bd11751461008d578063902f2034146100bd578063abfa84a3146100d9578063f851a440146100f5575b5f80fd5b610073600480360381019061006e91906108fd565b610113565b6040516100849594939291906109db565b60405180910390f35b6100a760048036038101906100a291906108fd565b6103af565b6040516100b49190610a41565b60405180910390f35b6100d760048036038101906100d29190610abb565b610404565b005b6100f360048036038101906100ee91906108fd565b6106c5565b005b6100fd610878565b60405161010a9190610b6b565b60405180910390f35b5f60608060605f8060015f8873ffffffffffffffffffffffffffffffffffffffff1673ffffffffffffffffffffffffffffffffffffffff1681526020019081526020015f206040518060a00160405290815f82015f9054906101000a900473ffffffffffffffffffffffffffffffffffffffff1673ffffffffffffffffffffffffffffffffffffffff1673ffffffffffffffffffffffffffffffffffffffff1681526020016001820180546101c790610bb1565b80601f01602080910402602001604051908101604052809291908181526020018280546101f390610bb1565b801561023e5780601f106102155761010080835404028352916020019161023e565b820191905f5260205f20905b81548152906001019060200180831161022157829003601f168201915b5050505050815260200160028201805461025790610bb1565b80601f016020809104026020016040519081016040528092919081815260200182805461028390610bb1565b80156102ce5780601f106102a5576101008083540402835291602001916102ce565b820191905f5260205f20905b8154815290600101906020018083116102b157829003601f168201915b505050505081526020016003820180546102e790610bb1565b80601f016020809104026020016040519081016040528092919081815260200182805461031390610bb1565b801561035e5780601f106103355761010080835404028352916020019161035e565b820191905f5260205f20905b81548152906001019060200180831161034157829003601f168201915b50505050508152602001600482015f9054906101000a900460ff1615151515815250509050805f01518160200151826040015183606001518460800151955095509550955095505091939590929450565b5f60015f8373ffffffffffffffffffffffffffffffffffffffff1673ffffffffffffffffffffffffffffffffffffffff1681526020019081526020015f206004015f9054906101000a900460ff169050919050565b5f73ffffffffffffffffffffffffffffffffffffffff1660015f3373ffffffffffffffffffffffffffffffffffffffff1673ffffffffffffffffffffffffffffffffffffffff1681526020019081526020015f205f015f9054906101000a900473ffffffffffffffffffffffffffffffffffffffff1673ffffffffffffffffffffffffffffffffffffffff16146104d0576040517f08c379a00000000000000000000000000000000000000000000000000000000081526004016104c790610c2b565b60405180910390fd5b6040518060a001604052803373ffffffffffffffffffffffffffffffffffffffff16815260200187878080601f0160208091040260200160405190810160405280939291908181526020018383808284375f81840152601f19601f82011690508083019250505050505050815260200185858080601f0160208091040260200160405190810160405280939291908181526020018383808284375f81840152601f19601f82011690508083019250505050505050815260200183838080601f0160208091040260200160405190810160405280939291908181526020018383808284375f81840152601f19601f8201169050808301925050505050505081526020015f151581525060015f3373ffffffffffffffffffffffffffffffffffffffff1673ffffffffffffffffffffffffffffffffffffffff1681526020019081526020015f205f820151815f015f6101000a81548173ffffffffffffffffffffffffffffffffffffffff021916908373ffffffffffffffffffffffffffffffffffffffff160217905550602082015181600101908161066e9190610e1c565b5060408201518160020190816106849190610e1c565b50606082015181600301908161069a9190610e1c565b506080820151816004015f6101000a81548160ff021916908315150217905550905050505050505050565b5f8054906101000a900473ffffffffffffffffffffffffffffffffffffffff1673ffffffffffffffffffffffffffffffffffffffff163373ffffffffffffffffffffffffffffffffffffffff1614610752576040517f08c379a000000000000000000000000000000000000000000000000000000000815260040161074990610f5b565b60405180910390fd5b5f73ffffffffffffffffffffffffffffffffffffffff1660015f8373ffffffffffffffffffffffffffffffffffffffff1673ffffffffffffffffffffffffffffffffffffffff1681526020019081526020015f205f015f9054906101000a900473ffffffffffffffffffffffffffffffffffffffff1673ffffffffffffffffffffffffffffffffffffffff160361081e576040517f08c379a000000000000000000000000000000000000000000000000000000000815260040161081590610fc3565b60405180910390fd5b6001805f8373ffffffffffffffffffffffffffffffffffffffff1673ffffffffffffffffffffffffffffffffffffffff1681526020019081526020015f206004015f6101000a81548160ff02191690831515021790555050565b5f8054906101000a900473ffffffffffffffffffffffffffffffffffffffff1681565b5f80fd5b5f80fd5b5f73ffffffffffffffffffffffffffffffffffffffff82169050919050565b5f6108cc826108a3565b9050919050565b6108dc816108c2565b81146108e6575f80fd5b50565b5f813590506108f7816108d3565b92915050565b5f602082840312156109125761091161089b565b5b5f61091f848285016108e9565b91505092915050565b610931816108c2565b82525050565b5f81519050919050565b5f82825260208201905092915050565b5f5b8381101561096e578082015181840152602081019050610953565b5f8484015250505050565b5f601f19601f8301169050919050565b5f61099382610937565b61099d8185610941565b93506109ad818560208601610951565b6109b681610979565b840191505092915050565b5f8115159050919050565b6109d5816109c1565b82525050565b5f60a0820190506109ee5f830188610928565b8181036020830152610a008187610989565b90508181036040830152610a148186610989565b90508181036060830152610a288185610989565b9050610a3760808301846109cc565b9695505050505050565b5f602082019050610a545f8301846109cc565b92915050565b5f80fd5b5f80fd5b5f80fd5b5f8083601f840112610a7b57610a7a610a5a565b5b8235905067ffffffffffffffff811115610a9857610a97610a5e565b5b602083019150836001820283011115610ab457610ab3610a62565b5b9250929050565b5f805f805f8060608789031215610ad557610ad461089b565b5b5f87013567ffffffffffffffff811115610af257610af161089f565b5b610afe89828a01610a66565b9650965050602087013567ffffffffffffffff811115610b2157610b2061089f565b5b610b2d89828a01610a66565b9450945050604087013567ffffffffffffffff811115610b5057610b4f61089f565b5b610b5c89828a01610a66565b92509250509295509295509295565b5f602082019050610b7e5f830184610928565b92915050565b7f4e487b71000000000000000000000000000000000000000000000000000000005f52602260045260245ffd5b5f6002820490506001821680610bc857607f821691505b602082108103610bdb57610bda610b84565b5b50919050565b7f50726f766964657220616c726561647920726567697374657265642e000000005f82015250565b5f610c15601c83610941565b9150610c2082610be1565b602082019050919050565b5f6020820190508181035f830152610c4281610c09565b9050919050565b7f4e487b71000000000000000000000000000000000000000000000000000000005f52604160045260245ffd5b5f819050815f5260205f209050919050565b5f6020601f8301049050919050565b5f82821b905092915050565b5f60088302610cd27fffffffffffffffffffffffffffffffffffffffffffffffffffffffffffffffff82610c97565b610cdc8683610c97565b95508019841693508086168417925050509392505050565b5f819050919050565b5f819050919050565b5f610d20610d1b610d1684610cf4565b610cfd565b610cf4565b9050919050565b5f819050919050565b610d3983610d06565b610d4d610d4582610d27565b848454610ca3565b825550505050565b5f90565b610d61610d55565b610d6c818484610d30565b505050565b5b81811015610d8f57610d845f82610d59565b600181019050610d72565b5050565b601f821115610dd457610da581610c76565b610dae84610c88565b81016020851015610dbd578190505b610dd1610dc985610c88565b830182610d71565b50505b505050565b5f82821c905092915050565b5f610df45f1984600802610dd9565b1980831691505092915050565b5f610e0c8383610de5565b9150826002028217905092915050565b610e2582610937565b67ffffffffffffffff811115610e3e57610e3d610c49565b5b610e488254610bb1565b610e53828285610d93565b5f60209050601f831160018114610e84575f8415610e72578287015190505b610e7c8582610e01565b865550610ee3565b601f198416610e9286610c76565b5f5b82811015610eb957848901518255600182019150602085019450602081019050610e94565b86831015610ed65784890151610ed2601f891682610de5565b8355505b6001600288020188555050505b505050505050565b7f4f6e6c792061646d696e2063616e20706572666f726d207468697320616374695f8201527f6f6e2e0000000000000000000000000000000000000000000000000000000000602082015250565b5f610f45602383610941565b9150610f5082610eeb565b604082019050919050565b5f6020820190508181035f830152610f7281610f39565b9050919050565b7f50726f7669646572206e6f7420726567697374657265642e00000000000000005f82015250565b5f610fad601883610941565b9150610fb882610f79565b602082019050919050565b5f6020820190508181035f830152610fda81610fa1565b905091905056fea264697066735822122008ef26200d9e07b90aeb9cfebcfcbcf6d43d8cb34ee43e94aa9c6d088acaf78364736f6c63430008150033",
  "immutableReferences": {},
  "source": "// SPDX-License-Identifier: MIT\npragma solidity ^0.8.0;\n\ncontract HealthcareProviderRegistry {\n    address public admin;\n\n    constructor() {\n        admin = msg.sender;\n    }\n\n    struct HealthcareProvider {\n        address providerAddress;\n        string name;\n        string clinicName;\n        string licenseNumber;\n        bool isVerified;\n    }\n\n    mapping(address => HealthcareProvider) private healthcareProviders;\n\n    modifier onlyAdmin() {\n        require(msg.sender == admin, \"Only admin can perform this action.\");\n        _;\n    }\n\n    // Function to register a new healthcare provider\n    function registerHealthcareProvider(\n        string calldata name,\n        string calldata clinicName,\n        string calldata licenseNumber\n    ) external {\n        require(\n            healthcareProviders[msg.sender].providerAddress == address(0),\n            \"Provider already registered.\"\n        );\n\n        healthcareProviders[msg.sender] = HealthcareProvider({\n            providerAddress: msg.sender,\n            name: name,\n            clinicName: clinicName,\n            licenseNumber: licenseNumber,\n            isVerified: false\n        });\n    }\n\n    // Function for admin to verify a healthcare provider\n    function verifyHealthcareProvider(address providerAddress)\n        external\n        onlyAdmin\n    {\n        require(\n            healthcareProviders[providerAddress].providerAddress != address(0),\n            \"Provider not registered.\"\n        );\n        healthcareProviders[providerAddress].isVerified = true;\n    }\n\n    // Function to check if a provider is verified\n    function isProviderVerified(address providerAddress)\n        external\n        view\n        returns (bool)\n    {\n        return healthcareProviders[providerAddress].isVerified;\n    }\n\n    // Function to retrieve provider information\n    function getHealthcareProvider(address providerAddress)\n        external\n        view\n        returns (\n            address,\n            string memory,\n            string memory,\n            string memory,\n            bool\n        )\n    {\n        HealthcareProvider memory provider = healthcareProviders[providerAddress];\n        return (\n            provider.providerAddress,\n            provider.name,\n            provider.clinicName,\n            provider.licenseNumber,\n            provider.isVerified\n        );\n    }\n}\n",
  "sourcePath": "/Users/hongjingtoh/Documents/Healthcare-DApp/contracts/HealthcareProviderRegistry.sol",
  "compiler": {
    "name": "solc",
    "version": "0.8.21+commit.d9974bed.Emscripten.clang"
  },
  "schemaVersion": "3.4.16",
  "updatedAt": "2024-11-18T09:52:07.060Z",
  "devdoc": {
    "kind": "dev",
    "methods": {},
    "version": 1
  },
  "userdoc": {
    "kind": "user",
    "methods": {},
    "version": 1
  }
}