{
  "contractName": "MedicalRecords",
  "abi": [
    {
      "inputs": [
        {
          "internalType": "address",
          "name": "accessControlAddress",
          "type": "address"
        }
      ],
      "stateMutability": "nonpayable",
      "type": "constructor"
    },
    {
      "anonymous": false,
      "inputs": [
        {
          "indexed": true,
          "internalType": "address",
          "name": "patient",
          "type": "address"
        },
        {
          "indexed": true,
          "internalType": "address",
          "name": "uploadedBy",
          "type": "address"
        },
        {
          "indexed": false,
          "internalType": "string",
          "name": "cid",
          "type": "string"
        }
      ],
      "name": "MedicalRecordUploaded",
      "type": "event"
    },
    {
      "inputs": [],
      "name": "accessControl",
      "outputs": [
        {
          "internalType": "contract AccessControl",
          "name": "",
          "type": "address"
        }
      ],
      "stateMutability": "view",
      "type": "function"
    },
    {
      "inputs": [
        {
          "internalType": "address",
          "name": "",
          "type": "address"
        },
        {
          "internalType": "uint256",
          "name": "",
          "type": "uint256"
        }
      ],
      "name": "patientRecords",
      "outputs": [
        {
          "internalType": "address",
          "name": "patientAddress",
          "type": "address"
        },
        {
          "internalType": "address",
          "name": "uploadedBy",
          "type": "address"
        },
        {
          "internalType": "string",
          "name": "cid",
          "type": "string"
        },
        {
          "internalType": "uint256",
          "name": "timestamp",
          "type": "uint256"
        }
      ],
      "stateMutability": "view",
      "type": "function"
    },
    {
      "inputs": [
        {
          "internalType": "address",
          "name": "patientAddress",
          "type": "address"
        },
        {
          "internalType": "string",
          "name": "cid",
          "type": "string"
        }
      ],
      "name": "uploadMedicalRecord",
      "outputs": [],
      "stateMutability": "nonpayable",
      "type": "function"
    },
    {
      "inputs": [
        {
          "internalType": "address",
          "name": "patientAddress",
          "type": "address"
        }
      ],
      "name": "getMedicalRecords",
      "outputs": [
        {
          "components": [
            {
              "internalType": "address",
              "name": "patientAddress",
              "type": "address"
            },
            {
              "internalType": "address",
              "name": "uploadedBy",
              "type": "address"
            },
            {
              "internalType": "string",
              "name": "cid",
              "type": "string"
            },
            {
              "internalType": "uint256",
              "name": "timestamp",
              "type": "uint256"
            }
          ],
          "internalType": "struct MedicalRecords.MedicalRecord[]",
          "name": "",
          "type": "tuple[]"
        }
      ],
      "stateMutability": "view",
      "type": "function"
    }
  ],
  "bytecode": "0x608060405234801562000010575f80fd5b5060405162001235380380620012358339818101604052810190620000369190620000e1565b805f806101000a81548173ffffffffffffffffffffffffffffffffffffffff021916908373ffffffffffffffffffffffffffffffffffffffff1602179055505062000111565b5f80fd5b5f73ffffffffffffffffffffffffffffffffffffffff82169050919050565b5f620000ab8262000080565b9050919050565b620000bd816200009f565b8114620000c8575f80fd5b50565b5f81519050620000db81620000b2565b92915050565b5f60208284031215620000f957620000f86200007c565b5b5f6200010884828501620000cb565b91505092915050565b611116806200011f5f395ff3fe608060405234801561000f575f80fd5b506004361061004a575f3560e01c806313007d551461004e578063875966d81461006c57806394f0df6114610088578063afd8297c146100bb575b5f80fd5b6100566100eb565b604051610063919061085f565b60405180910390f35b6100866004803603810190610081919061091c565b61010e565b005b6100a2600480360381019061009d91906109ac565b6103f1565b6040516100b29493929190610a92565b60405180910390f35b6100d560048036038101906100d09190610adc565b6104fb565b6040516100e29190610c88565b60405180910390f35b5f8054906101000a900473ffffffffffffffffffffffffffffffffffffffff1681565b5f8054906101000a900473ffffffffffffffffffffffffffffffffffffffff1673ffffffffffffffffffffffffffffffffffffffff166362e1f74584336040518363ffffffff1660e01b8152600401610168929190610ca8565b602060405180830381865afa158015610183573d5f803e3d5ffd5b505050506040513d601f19601f820116820180604052508101906101a79190610d04565b6101e6576040517f08c379a00000000000000000000000000000000000000000000000000000000081526004016101dd90610d79565b60405180910390fd5b60015f8473ffffffffffffffffffffffffffffffffffffffff1673ffffffffffffffffffffffffffffffffffffffff1681526020019081526020015f2060405180608001604052808573ffffffffffffffffffffffffffffffffffffffff1681526020013373ffffffffffffffffffffffffffffffffffffffff16815260200184848080601f0160208091040260200160405190810160405280939291908181526020018383808284375f81840152601f19601f82011690508083019250505050505050815260200142815250908060018154018082558091505060019003905f5260205f2090600402015f909190919091505f820151815f015f6101000a81548173ffffffffffffffffffffffffffffffffffffffff021916908373ffffffffffffffffffffffffffffffffffffffff1602179055506020820151816001015f6101000a81548173ffffffffffffffffffffffffffffffffffffffff021916908373ffffffffffffffffffffffffffffffffffffffff16021790555060408201518160020190816103789190610fb5565b506060820151816003015550503373ffffffffffffffffffffffffffffffffffffffff168373ffffffffffffffffffffffffffffffffffffffff167f811a3f45e15950408bd2583c9af0ad3b76c183ebe9c10ef076a61fa4fa38bae884846040516103e49291906110be565b60405180910390a3505050565b6001602052815f5260405f20818154811061040a575f80fd5b905f5260205f2090600402015f9150915050805f015f9054906101000a900473ffffffffffffffffffffffffffffffffffffffff1690806001015f9054906101000a900473ffffffffffffffffffffffffffffffffffffffff169080600201805461047490610df1565b80601f01602080910402602001604051908101604052809291908181526020018280546104a090610df1565b80156104eb5780601f106104c2576101008083540402835291602001916104eb565b820191905f5260205f20905b8154815290600101906020018083116104ce57829003601f168201915b5050505050908060030154905084565b60608173ffffffffffffffffffffffffffffffffffffffff163373ffffffffffffffffffffffffffffffffffffffff1614806105cc57505f8054906101000a900473ffffffffffffffffffffffffffffffffffffffff1673ffffffffffffffffffffffffffffffffffffffff166362e1f74583336040518363ffffffff1660e01b815260040161058c929190610ca8565b602060405180830381865afa1580156105a7573d5f803e3d5ffd5b505050506040513d601f19601f820116820180604052508101906105cb9190610d04565b5b61060b576040517f08c379a000000000000000000000000000000000000000000000000000000000815260040161060290610d79565b60405180910390fd5b60015f8373ffffffffffffffffffffffffffffffffffffffff1673ffffffffffffffffffffffffffffffffffffffff1681526020019081526020015f20805480602002602001604051908101604052809291908181526020015f905b828210156107da578382905f5260205f2090600402016040518060800160405290815f82015f9054906101000a900473ffffffffffffffffffffffffffffffffffffffff1673ffffffffffffffffffffffffffffffffffffffff1673ffffffffffffffffffffffffffffffffffffffff168152602001600182015f9054906101000a900473ffffffffffffffffffffffffffffffffffffffff1673ffffffffffffffffffffffffffffffffffffffff1673ffffffffffffffffffffffffffffffffffffffff16815260200160028201805461074190610df1565b80601f016020809104026020016040519081016040528092919081815260200182805461076d90610df1565b80156107b85780601f1061078f576101008083540402835291602001916107b8565b820191905f5260205f20905b81548152906001019060200180831161079b57829003601f168201915b5050505050815260200160038201548152505081526020019060010190610667565b505050509050919050565b5f73ffffffffffffffffffffffffffffffffffffffff82169050919050565b5f819050919050565b5f61082761082261081d846107e5565b610804565b6107e5565b9050919050565b5f6108388261080d565b9050919050565b5f6108498261082e565b9050919050565b6108598161083f565b82525050565b5f6020820190506108725f830184610850565b92915050565b5f80fd5b5f80fd5b5f61088a826107e5565b9050919050565b61089a81610880565b81146108a4575f80fd5b50565b5f813590506108b581610891565b92915050565b5f80fd5b5f80fd5b5f80fd5b5f8083601f8401126108dc576108db6108bb565b5b8235905067ffffffffffffffff8111156108f9576108f86108bf565b5b602083019150836001820283011115610915576109146108c3565b5b9250929050565b5f805f6040848603121561093357610932610878565b5b5f610940868287016108a7565b935050602084013567ffffffffffffffff8111156109615761096061087c565b5b61096d868287016108c7565b92509250509250925092565b5f819050919050565b61098b81610979565b8114610995575f80fd5b50565b5f813590506109a681610982565b92915050565b5f80604083850312156109c2576109c1610878565b5b5f6109cf858286016108a7565b92505060206109e085828601610998565b9150509250929050565b6109f381610880565b82525050565b5f81519050919050565b5f82825260208201905092915050565b5f5b83811015610a30578082015181840152602081019050610a15565b5f8484015250505050565b5f601f19601f8301169050919050565b5f610a55826109f9565b610a5f8185610a03565b9350610a6f818560208601610a13565b610a7881610a3b565b840191505092915050565b610a8c81610979565b82525050565b5f608082019050610aa55f8301876109ea565b610ab260208301866109ea565b8181036040830152610ac48185610a4b565b9050610ad36060830184610a83565b95945050505050565b5f60208284031215610af157610af0610878565b5b5f610afe848285016108a7565b91505092915050565b5f81519050919050565b5f82825260208201905092915050565b5f819050602082019050919050565b610b3981610880565b82525050565b5f82825260208201905092915050565b5f610b59826109f9565b610b638185610b3f565b9350610b73818560208601610a13565b610b7c81610a3b565b840191505092915050565b610b9081610979565b82525050565b5f608083015f830151610bab5f860182610b30565b506020830151610bbe6020860182610b30565b5060408301518482036040860152610bd68282610b4f565b9150506060830151610beb6060860182610b87565b508091505092915050565b5f610c018383610b96565b905092915050565b5f602082019050919050565b5f610c1f82610b07565b610c298185610b11565b935083602082028501610c3b85610b21565b805f5b85811015610c765784840389528151610c578582610bf6565b9450610c6283610c09565b925060208a01995050600181019050610c3e565b50829750879550505050505092915050565b5f6020820190508181035f830152610ca08184610c15565b905092915050565b5f604082019050610cbb5f8301856109ea565b610cc860208301846109ea565b9392505050565b5f8115159050919050565b610ce381610ccf565b8114610ced575f80fd5b50565b5f81519050610cfe81610cda565b92915050565b5f60208284031215610d1957610d18610878565b5b5f610d2684828501610cf0565b91505092915050565b7f416363657373206e6f74206772616e7465642e000000000000000000000000005f82015250565b5f610d63601383610a03565b9150610d6e82610d2f565b602082019050919050565b5f6020820190508181035f830152610d9081610d57565b9050919050565b7f4e487b71000000000000000000000000000000000000000000000000000000005f52604160045260245ffd5b7f4e487b71000000000000000000000000000000000000000000000000000000005f52602260045260245ffd5b5f6002820490506001821680610e0857607f821691505b602082108103610e1b57610e1a610dc4565b5b50919050565b5f819050815f5260205f209050919050565b5f6020601f8301049050919050565b5f82821b905092915050565b5f60088302610e7d7fffffffffffffffffffffffffffffffffffffffffffffffffffffffffffffffff82610e42565b610e878683610e42565b95508019841693508086168417925050509392505050565b5f610eb9610eb4610eaf84610979565b610804565b610979565b9050919050565b5f819050919050565b610ed283610e9f565b610ee6610ede82610ec0565b848454610e4e565b825550505050565b5f90565b610efa610eee565b610f05818484610ec9565b505050565b5b81811015610f2857610f1d5f82610ef2565b600181019050610f0b565b5050565b601f821115610f6d57610f3e81610e21565b610f4784610e33565b81016020851015610f56578190505b610f6a610f6285610e33565b830182610f0a565b50505b505050565b5f82821c905092915050565b5f610f8d5f1984600802610f72565b1980831691505092915050565b5f610fa58383610f7e565b9150826002028217905092915050565b610fbe826109f9565b67ffffffffffffffff811115610fd757610fd6610d97565b5b610fe18254610df1565b610fec828285610f2c565b5f60209050601f83116001811461101d575f841561100b578287015190505b6110158582610f9a565b86555061107c565b601f19841661102b86610e21565b5f5b828110156110525784890151825560018201915060208501945060208101905061102d565b8683101561106f578489015161106b601f891682610f7e565b8355505b6001600288020188555050505b505050505050565b828183375f83830152505050565b5f61109d8385610a03565b93506110aa838584611084565b6110b383610a3b565b840190509392505050565b5f6020820190508181035f8301526110d7818486611092565b9050939250505056fea2646970667358221220f71a429a8cab2d14be025025db6abcc079ae4bf268afa7ef2750a9ded5bd8f8564736f6c63430008150033",
  "immutableReferences": {},
  "source": "// SPDX-License-Identifier: MIT\npragma solidity ^0.8.0;\n\nimport \"./AccessControl.sol\";\n\ncontract MedicalRecords {\n    AccessControl public accessControl;\n\n    constructor(address accessControlAddress) {\n        accessControl = AccessControl(accessControlAddress);\n    }\n\n    struct MedicalRecord {\n        address patientAddress;\n        address uploadedBy;\n        string cid;\n        uint256 timestamp;\n    }\n\n    mapping(address => MedicalRecord[]) public patientRecords;\n\n    event MedicalRecordUploaded(\n        address indexed patient,\n        address indexed uploadedBy,\n        string cid\n    );\n\n    // Function to upload a medical record\n    function uploadMedicalRecord(address patientAddress, string calldata cid)\n        external\n    {\n        require(\n            accessControl.checkAccess(patientAddress, msg.sender),\n            \"Access not granted.\"\n        );\n\n        patientRecords[patientAddress].push(\n            MedicalRecord({\n                patientAddress: patientAddress,\n                uploadedBy: msg.sender,\n                cid: cid,\n                timestamp: block.timestamp\n            })\n        );\n\n        emit MedicalRecordUploaded(patientAddress, msg.sender, cid);\n    }\n\n    // Function to retrieve medical records\n    function getMedicalRecords(address patientAddress)\n        external\n        view\n        returns (MedicalRecord[] memory)\n    {\n        require(\n            msg.sender == patientAddress ||\n                accessControl.checkAccess(patientAddress, msg.sender),\n            \"Access not granted.\"\n        );\n\n        return patientRecords[patientAddress];\n    }\n}\n",
  "sourcePath": "/Users/hongjingtoh/Documents/Healthcare-DApp/contracts/MedicalRecords.sol",
  "compiler": {
    "name": "solc",
    "version": "0.8.21+commit.d9974bed.Emscripten.clang"
  },
  "schemaVersion": "3.4.16",
  "updatedAt": "2024-11-18T09:52:07.061Z",
  "devdoc": {
    "kind": "dev",
    "methods": {},
    "version": 1
  },
  "userdoc": {
    "kind": "user",
    "methods": {},
    "version": 1
  }
}