{
  "contractName": "PatientRegistry",
  "abi": [
    {
      "inputs": [
        {
          "internalType": "string",
          "name": "name",
          "type": "string"
        },
        {
          "internalType": "uint256",
          "name": "dateOfBirth",
          "type": "uint256"
        },
        {
          "internalType": "string",
          "name": "gender",
          "type": "string"
        }
      ],
      "name": "registerPatient",
      "outputs": [],
      "stateMutability": "nonpayable",
      "type": "function"
    },
    {
      "inputs": [
        {
          "internalType": "string",
          "name": "name",
          "type": "string"
        },
        {
          "internalType": "uint256",
          "name": "dateOfBirth",
          "type": "uint256"
        },
        {
          "internalType": "string",
          "name": "gender",
          "type": "string"
        }
      ],
      "name": "updatePatientInfo",
      "outputs": [],
      "stateMutability": "nonpayable",
      "type": "function"
    },
    {
      "inputs": [
        {
          "internalType": "address",
          "name": "patientAddress",
          "type": "address"
        }
      ],
      "name": "isPatientRegistered",
      "outputs": [
        {
          "internalType": "bool",
          "name": "",
          "type": "bool"
        }
      ],
      "stateMutability": "view",
      "type": "function"
    },
    {
      "inputs": [
        {
          "internalType": "address",
          "name": "patientAddress",
          "type": "address"
        }
      ],
      "name": "getPatient",
      "outputs": [
        {
          "internalType": "address",
          "name": "",
          "type": "address"
        },
        {
          "internalType": "string",
          "name": "",
          "type": "string"
        },
        {
          "internalType": "uint256",
          "name": "",
          "type": "uint256"
        },
        {
          "internalType": "string",
          "name": "",
          "type": "string"
        },
        {
          "internalType": "string[]",
          "name": "",
          "type": "string[]"
        }
      ],
      "stateMutability": "view",
      "type": "function"
    }
  ],
  "bytecode": "0x608060405234801561000f575f80fd5b506111e48061001d5f395ff3fe608060405234801561000f575f80fd5b506004361061004a575f3560e01c80631d14c36e1461004e57806380b6b1b81461006a578063ac2b61cd1461009a578063b5368e20146100b6575b5f80fd5b610068600480360381019061006391906109b7565b6100ea565b005b610084600480360381019061007f9190610aa2565b6103a2565b6040516100919190610ae7565b60405180910390f35b6100b460048036038101906100af91906109b7565b610437565b005b6100d060048036038101906100cb9190610aa2565b61057a565b6040516100e1959493929190610cab565b60405180910390f35b5f73ffffffffffffffffffffffffffffffffffffffff165f803373ffffffffffffffffffffffffffffffffffffffff1673ffffffffffffffffffffffffffffffffffffffff1681526020019081526020015f205f015f9054906101000a900473ffffffffffffffffffffffffffffffffffffffff1673ffffffffffffffffffffffffffffffffffffffff16146101b5576040517f08c379a00000000000000000000000000000000000000000000000000000000081526004016101ac90610d5b565b60405180910390fd5b6040518060a001604052803373ffffffffffffffffffffffffffffffffffffffff16815260200186868080601f0160208091040260200160405190810160405280939291908181526020018383808284375f81840152601f19601f82011690508083019250505050505050815260200184815260200183838080601f0160208091040260200160405190810160405280939291908181526020018383808284375f81840152601f19601f8201169050808301925050505050505081526020015f67ffffffffffffffff81111561028e5761028d610d79565b5b6040519080825280602002602001820160405280156102c157816020015b60608152602001906001900390816102ac5790505b508152505f803373ffffffffffffffffffffffffffffffffffffffff1673ffffffffffffffffffffffffffffffffffffffff1681526020019081526020015f205f820151815f015f6101000a81548173ffffffffffffffffffffffffffffffffffffffff021916908373ffffffffffffffffffffffffffffffffffffffff160217905550602082015181600101908161035a9190610fa0565b5060408201518160020155606082015181600301908161037a9190610fa0565b506080820151816004019080519060200190610397929190610849565b509050505050505050565b5f8073ffffffffffffffffffffffffffffffffffffffff165f808473ffffffffffffffffffffffffffffffffffffffff1673ffffffffffffffffffffffffffffffffffffffff1681526020019081526020015f205f015f9054906101000a900473ffffffffffffffffffffffffffffffffffffffff1673ffffffffffffffffffffffffffffffffffffffff1614159050919050565b5f73ffffffffffffffffffffffffffffffffffffffff165f803373ffffffffffffffffffffffffffffffffffffffff1673ffffffffffffffffffffffffffffffffffffffff1681526020019081526020015f205f015f9054906101000a900473ffffffffffffffffffffffffffffffffffffffff1673ffffffffffffffffffffffffffffffffffffffff1603610502576040517f08c379a00000000000000000000000000000000000000000000000000000000081526004016104f9906110b9565b60405180910390fd5b5f805f3373ffffffffffffffffffffffffffffffffffffffff1673ffffffffffffffffffffffffffffffffffffffff1681526020019081526020015f20905085858260010191826105549291906110e1565b5083816002018190555082828260030191826105719291906110e1565b50505050505050565b5f60605f6060805f805f8873ffffffffffffffffffffffffffffffffffffffff1673ffffffffffffffffffffffffffffffffffffffff1681526020019081526020015f206040518060a00160405290815f82015f9054906101000a900473ffffffffffffffffffffffffffffffffffffffff1673ffffffffffffffffffffffffffffffffffffffff1673ffffffffffffffffffffffffffffffffffffffff16815260200160018201805461062d90610dd3565b80601f016020809104026020016040519081016040528092919081815260200182805461065990610dd3565b80156106a45780601f1061067b576101008083540402835291602001916106a4565b820191905f5260205f20905b81548152906001019060200180831161068757829003601f168201915b50505050508152602001600282015481526020016003820180546106c790610dd3565b80601f01602080910402602001604051908101604052809291908181526020018280546106f390610dd3565b801561073e5780601f106107155761010080835404028352916020019161073e565b820191905f5260205f20905b81548152906001019060200180831161072157829003601f168201915b5050505050815260200160048201805480602002602001604051908101604052809291908181526020015f905b82821015610813578382905f5260205f2001805461078890610dd3565b80601f01602080910402602001604051908101604052809291908181526020018280546107b490610dd3565b80156107ff5780601f106107d6576101008083540402835291602001916107ff565b820191905f5260205f20905b8154815290600101906020018083116107e257829003601f168201915b50505050508152602001906001019061076b565b50505050815250509050805f01518160200151826040015183606001518460800151955095509550955095505091939590929450565b828054828255905f5260205f2090810192821561088f579160200282015b8281111561088e57825182908161087e9190610fa0565b5091602001919060010190610867565b5b50905061089c91906108a0565b5090565b5b808211156108bf575f81816108b691906108c3565b506001016108a1565b5090565b5080546108cf90610dd3565b5f825580601f106108e057506108fd565b601f0160209004905f5260205f20908101906108fc9190610900565b5b50565b5b80821115610917575f815f905550600101610901565b5090565b5f80fd5b5f80fd5b5f80fd5b5f80fd5b5f80fd5b5f8083601f84011261094457610943610923565b5b8235905067ffffffffffffffff81111561096157610960610927565b5b60208301915083600182028301111561097d5761097c61092b565b5b9250929050565b5f819050919050565b61099681610984565b81146109a0575f80fd5b50565b5f813590506109b18161098d565b92915050565b5f805f805f606086880312156109d0576109cf61091b565b5b5f86013567ffffffffffffffff8111156109ed576109ec61091f565b5b6109f98882890161092f565b95509550506020610a0c888289016109a3565b935050604086013567ffffffffffffffff811115610a2d57610a2c61091f565b5b610a398882890161092f565b92509250509295509295909350565b5f73ffffffffffffffffffffffffffffffffffffffff82169050919050565b5f610a7182610a48565b9050919050565b610a8181610a67565b8114610a8b575f80fd5b50565b5f81359050610a9c81610a78565b92915050565b5f60208284031215610ab757610ab661091b565b5b5f610ac484828501610a8e565b91505092915050565b5f8115159050919050565b610ae181610acd565b82525050565b5f602082019050610afa5f830184610ad8565b92915050565b610b0981610a67565b82525050565b5f81519050919050565b5f82825260208201905092915050565b5f5b83811015610b46578082015181840152602081019050610b2b565b5f8484015250505050565b5f601f19601f8301169050919050565b5f610b6b82610b0f565b610b758185610b19565b9350610b85818560208601610b29565b610b8e81610b51565b840191505092915050565b610ba281610984565b82525050565b5f81519050919050565b5f82825260208201905092915050565b5f819050602082019050919050565b5f82825260208201905092915050565b5f610beb82610b0f565b610bf58185610bd1565b9350610c05818560208601610b29565b610c0e81610b51565b840191505092915050565b5f610c248383610be1565b905092915050565b5f602082019050919050565b5f610c4282610ba8565b610c4c8185610bb2565b935083602082028501610c5e85610bc2565b805f5b85811015610c995784840389528151610c7a8582610c19565b9450610c8583610c2c565b925060208a01995050600181019050610c61565b50829750879550505050505092915050565b5f60a082019050610cbe5f830188610b00565b8181036020830152610cd08187610b61565b9050610cdf6040830186610b99565b8181036060830152610cf18185610b61565b90508181036080830152610d058184610c38565b90509695505050505050565b7f50617469656e7420616c726561647920726567697374657265642e00000000005f82015250565b5f610d45601b83610b19565b9150610d5082610d11565b602082019050919050565b5f6020820190508181035f830152610d7281610d39565b9050919050565b7f4e487b71000000000000000000000000000000000000000000000000000000005f52604160045260245ffd5b7f4e487b71000000000000000000000000000000000000000000000000000000005f52602260045260245ffd5b5f6002820490506001821680610dea57607f821691505b602082108103610dfd57610dfc610da6565b5b50919050565b5f819050815f5260205f209050919050565b5f6020601f8301049050919050565b5f82821b905092915050565b5f60088302610e5f7fffffffffffffffffffffffffffffffffffffffffffffffffffffffffffffffff82610e24565b610e698683610e24565b95508019841693508086168417925050509392505050565b5f819050919050565b5f610ea4610e9f610e9a84610984565b610e81565b610984565b9050919050565b5f819050919050565b610ebd83610e8a565b610ed1610ec982610eab565b848454610e30565b825550505050565b5f90565b610ee5610ed9565b610ef0818484610eb4565b505050565b5b81811015610f1357610f085f82610edd565b600181019050610ef6565b5050565b601f821115610f5857610f2981610e03565b610f3284610e15565b81016020851015610f41578190505b610f55610f4d85610e15565b830182610ef5565b50505b505050565b5f82821c905092915050565b5f610f785f1984600802610f5d565b1980831691505092915050565b5f610f908383610f69565b9150826002028217905092915050565b610fa982610b0f565b67ffffffffffffffff811115610fc257610fc1610d79565b5b610fcc8254610dd3565b610fd7828285610f17565b5f60209050601f831160018114611008575f8415610ff6578287015190505b6110008582610f85565b865550611067565b601f19841661101686610e03565b5f5b8281101561103d57848901518255600182019150602085019450602081019050611018565b8683101561105a5784890151611056601f891682610f69565b8355505b6001600288020188555050505b505050505050565b7f50617469656e74206e6f7420726567697374657265642e0000000000000000005f82015250565b5f6110a3601783610b19565b91506110ae8261106f565b602082019050919050565b5f6020820190508181035f8301526110d081611097565b9050919050565b5f82905092915050565b6110eb83836110d7565b67ffffffffffffffff81111561110457611103610d79565b5b61110e8254610dd3565b611119828285610f17565b5f601f831160018114611146575f8415611134578287013590505b61113e8582610f85565b8655506111a5565b601f19841661115486610e03565b5f5b8281101561117b57848901358255600182019150602085019450602081019050611156565b868310156111985784890135611194601f891682610f69565b8355505b6001600288020188555050505b5050505050505056fea264697066735822122076dbf9a028dbae8094b2e0ae4c747afc7aee0a71e52220e61cb48ba388d6103264736f6c63430008150033",
  "immutableReferences": {},
  "source": "// SPDX-License-Identifier: MIT\npragma solidity ^0.8.0;\n\ncontract PatientRegistry {\n    struct Patient {\n        address patientAddress;\n        string name;\n        uint256 dateOfBirth;\n        string gender;\n        string[] medicalRecordCIDs;\n    }\n\n    mapping(address => Patient) private patients;\n\n    // Function to register a new patient\n    function registerPatient(\n        string calldata name,\n        uint256 dateOfBirth,\n        string calldata gender\n    ) external {\n        require(\n            patients[msg.sender].patientAddress == address(0),\n            \"Patient already registered.\"\n        );\n\n        patients[msg.sender] = Patient({\n            patientAddress: msg.sender,\n            name: name,\n            dateOfBirth: dateOfBirth,\n            gender: gender,\n            medicalRecordCIDs: new string[](0) \n        });\n    }\n\n    // Function to update patient information\n    function updatePatientInfo(\n        string calldata name,\n        uint256 dateOfBirth,\n        string calldata gender\n    ) external {\n        require(\n            patients[msg.sender].patientAddress != address(0),\n            \"Patient not registered.\"\n        );\n\n        Patient storage patient = patients[msg.sender];\n        patient.name = name;\n        patient.dateOfBirth = dateOfBirth;\n        patient.gender = gender;\n    }\n\n    // Function to check if a patient is registered\n    function isPatientRegistered(address patientAddress)\n        external\n        view\n        returns (bool)\n    {\n        return patients[patientAddress].patientAddress != address(0);\n    }\n\n    // Function to retrieve patient information\n    function getPatient(address patientAddress)\n        external\n        view\n        returns (\n            address,\n            string memory,\n            uint256,\n            string memory,\n            string[] memory\n        )\n    {\n        Patient memory patient = patients[patientAddress];\n        return (\n            patient.patientAddress,\n            patient.name,\n            patient.dateOfBirth,\n            patient.gender,\n            patient.medicalRecordCIDs\n        );\n    }\n}\n",
  "sourcePath": "/Users/hongjingtoh/Documents/Healthcare-DApp/contracts/PatientRegistry.sol",
  "compiler": {
    "name": "solc",
    "version": "0.8.21+commit.d9974bed.Emscripten.clang"
  },
  "schemaVersion": "3.4.16",
  "updatedAt": "2024-11-18T09:52:07.062Z",
  "devdoc": {
    "kind": "dev",
    "methods": {},
    "version": 1
  },
  "userdoc": {
    "kind": "user",
    "methods": {},
    "version": 1
  }
}